{
  "contractName": "SocialNetwork",
  "abi": [
    {
      "constant": true,
      "inputs": [
        {
          "name": "",
          "type": "uint256"
        }
      ],
      "name": "posts",
      "outputs": [
        {
          "name": "id",
          "type": "uint256"
        },
        {
          "name": "content",
          "type": "string"
        },
        {
          "name": "tipAmount",
          "type": "uint256"
        },
        {
          "name": "vote",
          "type": "uint256"
        },
        {
          "name": "author",
          "type": "address"
        }
      ],
      "payable": false,
      "stateMutability": "view",
      "type": "function",
      "signature": "0x0b1e7f83"
    },
    {
      "constant": true,
      "inputs": [],
      "name": "postCount",
      "outputs": [
        {
          "name": "",
          "type": "uint256"
        }
      ],
      "payable": false,
      "stateMutability": "view",
      "type": "function",
      "signature": "0x17906c2e"
    },
    {
      "constant": true,
      "inputs": [
        {
          "name": "",
          "type": "address"
        },
        {
          "name": "",
          "type": "uint256"
        }
      ],
      "name": "addressVotes",
      "outputs": [
        {
          "name": "",
          "type": "bool"
        }
      ],
      "payable": false,
      "stateMutability": "view",
      "type": "function",
      "signature": "0x33d516c7"
    },
    {
      "constant": true,
      "inputs": [
        {
          "name": "",
          "type": "uint256"
        },
        {
          "name": "",
          "type": "uint256"
        }
      ],
      "name": "voterOfPost",
      "outputs": [
        {
          "name": "",
          "type": "address"
        }
      ],
      "payable": false,
      "stateMutability": "view",
      "type": "function",
      "signature": "0x73217dce"
    },
    {
      "anonymous": false,
      "inputs": [
        {
          "indexed": false,
          "name": "id",
          "type": "uint256"
        },
        {
          "indexed": false,
          "name": "content",
          "type": "string"
        },
        {
          "indexed": false,
          "name": "tipAmount",
          "type": "uint256"
        },
        {
          "indexed": false,
          "name": "vote",
          "type": "uint256"
        },
        {
          "indexed": false,
          "name": "author",
          "type": "address"
        }
      ],
      "name": "PostCreate",
      "type": "event",
      "signature": "0x5676a72eda1d2cf2f30e6792139f71315fd9bc606c2036b31e702599a089d590"
    },
    {
      "anonymous": false,
      "inputs": [
        {
          "indexed": false,
          "name": "id",
          "type": "uint256"
        },
        {
          "indexed": false,
          "name": "content",
          "type": "string"
        },
        {
          "indexed": false,
          "name": "tipAmount",
          "type": "uint256"
        },
        {
          "indexed": false,
          "name": "author",
          "type": "address"
        }
      ],
      "name": "PostTipped",
      "type": "event",
      "signature": "0x20988fe475351e75813672abada1dddb7ac67cbbeb81e61e1160b8329d8cdf1c"
    },
    {
      "anonymous": false,
      "inputs": [
        {
          "indexed": false,
          "name": "id",
          "type": "uint256"
        },
        {
          "indexed": false,
          "name": "authorPost",
          "type": "address"
        },
        {
          "indexed": false,
          "name": "voter",
          "type": "address"
        }
      ],
      "name": "Vote",
      "type": "event",
      "signature": "0x02afaea33648bcd43181ececd38efc8528872eb2f1be6ceffde70163aff83969"
    },
    {
      "constant": false,
      "inputs": [
        {
          "name": "_content",
          "type": "string"
        }
      ],
      "name": "createPost",
      "outputs": [],
      "payable": false,
      "stateMutability": "nonpayable",
      "type": "function",
      "signature": "0xc7303c61"
    },
    {
      "constant": false,
      "inputs": [
        {
          "name": "_id",
          "type": "uint256"
        }
      ],
      "name": "tipPost",
      "outputs": [],
      "payable": true,
      "stateMutability": "payable",
      "type": "function",
      "signature": "0x74d3c1f8"
    },
    {
      "constant": false,
      "inputs": [
        {
          "name": "_id",
          "type": "uint256"
        }
      ],
      "name": "votePost",
      "outputs": [],
      "payable": false,
      "stateMutability": "nonpayable",
      "type": "function",
      "signature": "0x85688d6f"
    }
  ],
  "bytecode": "0x60806040526000805534801561001457600080fd5b50610f85806100246000396000f3fe608060405260043610610083576000357c0100000000000000000000000000000000000000000000000000000000900463ffffffff1680630b1e7f831461008857806317906c2e1461018457806333d516c7146101af57806373217dce1461022257806374d3c1f8146102a757806385688d6f146102d5578063c7303c6114610310575b600080fd5b34801561009457600080fd5b506100c1600480360360208110156100ab57600080fd5b81019080803590602001909291905050506103d8565b60405180868152602001806020018581526020018481526020018373ffffffffffffffffffffffffffffffffffffffff1673ffffffffffffffffffffffffffffffffffffffff168152602001828103825286818151815260200191508051906020019080838360005b8381101561014557808201518184015260208101905061012a565b50505050905090810190601f1680156101725780820380516001836020036101000a031916815260200191505b50965050505050505060405180910390f35b34801561019057600080fd5b506101996104c6565b6040518082815260200191505060405180910390f35b3480156101bb57600080fd5b50610208600480360360408110156101d257600080fd5b81019080803573ffffffffffffffffffffffffffffffffffffffff169060200190929190803590602001909291905050506104cc565b604051808215151515815260200191505060405180910390f35b34801561022e57600080fd5b506102656004803603604081101561024557600080fd5b8101908080359060200190929190803590602001909291905050506104fb565b604051808273ffffffffffffffffffffffffffffffffffffffff1673ffffffffffffffffffffffffffffffffffffffff16815260200191505060405180910390f35b6102d3600480360360208110156102bd57600080fd5b810190808035906020019092919050505061053d565b005b3480156102e157600080fd5b5061030e600480360360208110156102f857600080fd5b8101908080359060200190929190505050610887565b005b34801561031c57600080fd5b506103d66004803603602081101561033357600080fd5b810190808035906020019064010000000081111561035057600080fd5b82018360208201111561036257600080fd5b8035906020019184600183028401116401000000008311171561038457600080fd5b91908080601f016020809104026020016040519081016040528093929190818152602001838380828437600081840152601f19601f820116905080830192505050505050509192919290505050610c7e565b005b6001602052806000526040600020600091509050806000015490806001018054600181600116156101000203166002900480601f01602080910402602001604051908101604052809291908181526020018280546001816001161561010002031660029004801561048a5780601f1061045f5761010080835404028352916020019161048a565b820191906000526020600020905b81548152906001019060200180831161046d57829003601f168201915b5050505050908060020154908060030154908060040160009054906101000a900473ffffffffffffffffffffffffffffffffffffffff16905085565b60005481565b60026020528160005260406000206020528060005260406000206000915091509054906101000a900460ff1681565b60036020528160005260406000206020528060005260406000206000915091509054906101000a900473ffffffffffffffffffffffffffffffffffffffff1681565b60008111801561054f57506000548111155b151561055a57600080fd5b610562610e6e565b6001600083815260200190815260200160002060a0604051908101604052908160008201548152602001600182018054600181600116156101000203166002900480601f0160208091040260200160405190810160405280929190818152602001828054600181600116156101000203166002900480156106245780601f106105f957610100808354040283529160200191610624565b820191906000526020600020905b81548152906001019060200180831161060757829003601f168201915b5050505050815260200160028201548152602001600382015481526020016004820160009054906101000a900473ffffffffffffffffffffffffffffffffffffffff1673ffffffffffffffffffffffffffffffffffffffff1673ffffffffffffffffffffffffffffffffffffffff1681525050905060008160800151905060008190508073ffffffffffffffffffffffffffffffffffffffff166108fc349081150290604051600060405180830381858888f193505050501580156106ed573d6000803e3d6000fd5b50348360400151018360400181815250508260016000868152602001908152602001600020600082015181600001556020820151816001019080519060200190610738929190610eb4565b50604082015181600201556060820151816003015560808201518160040160006101000a81548173ffffffffffffffffffffffffffffffffffffffff021916908373ffffffffffffffffffffffffffffffffffffffff1602179055509050507f20988fe475351e75813672abada1dddb7ac67cbbeb81e61e1160b8329d8cdf1c600054846020015185604001518560405180858152602001806020018481526020018373ffffffffffffffffffffffffffffffffffffffff1673ffffffffffffffffffffffffffffffffffffffff168152602001828103825285818151815260200191508051906020019080838360005b83811015610844578082015181840152602081019050610829565b50505050905090810190601f1680156108715780820380516001836020036101000a031916815260200191505b509550505050505060405180910390a150505050565b60008111801561089957506000548111155b15156108a457600080fd5b600033905060001515600260008373ffffffffffffffffffffffffffffffffffffffff1673ffffffffffffffffffffffffffffffffffffffff168152602001908152602001600020600084815260200190815260200160002060009054906101000a900460ff16151514151561091957600080fd5b610921610e6e565b6001600084815260200190815260200160002060a0604051908101604052908160008201548152602001600182018054600181600116156101000203166002900480601f0160208091040260200160405190810160405280929190818152602001828054600181600116156101000203166002900480156109e35780601f106109b8576101008083540402835291602001916109e3565b820191906000526020600020905b8154815290600101906020018083116109c657829003601f168201915b5050505050815260200160028201548152602001600382015481526020016004820160009054906101000a900473ffffffffffffffffffffffffffffffffffffffff1673ffffffffffffffffffffffffffffffffffffffff1673ffffffffffffffffffffffffffffffffffffffff16815250509050816003600085815260200190815260200160002060008360600151815260200190815260200160002060006101000a81548173ffffffffffffffffffffffffffffffffffffffff021916908373ffffffffffffffffffffffffffffffffffffffff16021790555060018160600151018160600181815250508060016000858152602001908152602001600020600082015181600001556020820151816001019080519060200190610b0a929190610eb4565b50604082015181600201556060820151816003015560808201518160040160006101000a81548173ffffffffffffffffffffffffffffffffffffffff021916908373ffffffffffffffffffffffffffffffffffffffff1602179055509050506001600260008473ffffffffffffffffffffffffffffffffffffffff1673ffffffffffffffffffffffffffffffffffffffff168152602001908152602001600020600085815260200190815260200160002060006101000a81548160ff0219169083151502179055507f02afaea33648bcd43181ececd38efc8528872eb2f1be6ceffde70163aff839698160000151826080015184604051808481526020018373ffffffffffffffffffffffffffffffffffffffff1673ffffffffffffffffffffffffffffffffffffffff1681526020018273ffffffffffffffffffffffffffffffffffffffff1673ffffffffffffffffffffffffffffffffffffffff168152602001935050505060405180910390a1505050565b60008151111515610c8e57600080fd5b6000808154809291906001019190505550600033905060a060405190810160405280600054815260200183815260200160008152602001600081526020018273ffffffffffffffffffffffffffffffffffffffff168152506001600080548152602001908152602001600020600082015181600001556020820151816001019080519060200190610d20929190610eb4565b50604082015181600201556060820151816003015560808201518160040160006101000a81548173ffffffffffffffffffffffffffffffffffffffff021916908373ffffffffffffffffffffffffffffffffffffffff1602179055509050507f5676a72eda1d2cf2f30e6792139f71315fd9bc606c2036b31e702599a089d590600054836000808560405180868152602001806020018581526020018481526020018373ffffffffffffffffffffffffffffffffffffffff1673ffffffffffffffffffffffffffffffffffffffff168152602001828103825286818151815260200191508051906020019080838360005b83811015610e2c578082015181840152602081019050610e11565b50505050905090810190601f168015610e595780820380516001836020036101000a031916815260200191505b50965050505050505060405180910390a15050565b60a06040519081016040528060008152602001606081526020016000815260200160008152602001600073ffffffffffffffffffffffffffffffffffffffff1681525090565b828054600181600116156101000203166002900490600052602060002090601f016020900481019282601f10610ef557805160ff1916838001178555610f23565b82800160010185558215610f23579182015b82811115610f22578251825591602001919060010190610f07565b5b509050610f309190610f34565b5090565b610f5691905b80821115610f52576000816000905550600101610f3a565b5090565b9056fea165627a7a7230582026fc53658ee8661dba74656f838ee2c1f397e08afc0364b04374da94551bf92e0029",
  "source": "pragma solidity 0.5.0;\r\n\r\ncontract SocialNetwork {\r\n    uint public postCount = 0;\r\n\r\n    mapping(uint => Post) public posts;\r\n    mapping(address => mapping(uint => bool)) public addressVotes;\r\n    mapping(uint => mapping (uint => address)) public voterOfPost; \r\n    struct Post{\r\n        uint id;\r\n        string content;\r\n        uint tipAmount;\r\n        uint vote;\r\n        address payable author;\r\n    }\r\n\r\n    event PostCreate(\r\n        uint id,\r\n        string content,\r\n        uint tipAmount,\r\n        uint vote,\r\n        address payable author\r\n    );\r\n\r\n    event PostTipped(\r\n        uint id,\r\n        string content,\r\n        uint tipAmount,\r\n        address payable author\r\n    );\r\n\r\n    event Vote(\r\n        uint id,\r\n        address authorPost,\r\n        address voter\r\n    );\r\n\r\n    function createPost(string memory _content) public{\r\n        // require valid content\r\n        require(bytes(_content).length > 0);// if true continue excution \r\n        // Increment post\r\n        postCount++;\r\n        // create the post\r\n        address payable payable_addr = address(uint160(msg.sender));\r\n        posts[postCount] = Post(postCount, _content, 0, 0, payable_addr);\r\n        // Trigger event\r\n        emit PostCreate(postCount, _content, 0, 0, payable_addr);\r\n    }\r\n\r\n    function tipPost(uint _id) public payable {\r\n        // make sure the id is valid\r\n        require(_id > 0 && _id <= postCount);\r\n\r\n        // fetch the post\r\n        Post memory _post = posts[_id];\r\n        // fetch the author\r\n        address payable _author = _post.author;\r\n        address payable payable_addr = address(uint160(_author));\r\n        // pay the author by sending them Ether\r\n        payable_addr.transfer(msg.value); // send and transfer just Object address payable not address\r\n        // Incremet the tip amount\r\n        _post.tipAmount = _post.tipAmount + msg.value;\r\n        // update the post\r\n        posts[_id] = _post;\r\n        // trigger event\r\n        emit PostTipped(postCount, _post.content, _post.tipAmount, _author);\r\n    }\r\n\r\n    function votePost(uint _id) public{\r\n        require(_id > 0 && _id <= postCount);\r\n        address payable voter = address(uint160(msg.sender)); \r\n        require(addressVotes[voter][_id] == false);\r\n        Post memory _post = posts[_id];\r\n\r\n        voterOfPost[_id][_post.vote] = voter;\r\n        _post.vote = _post.vote + 1;\r\n\r\n        posts[_id] = _post;\r\n        addressVotes[voter][_id] = true;\r\n\r\n        emit Vote(_post.id,_post.author, voter);\r\n    }\r\n}\r\n",
  "sourcePath": "C:/Users/TranL/Documents/Web/IUH/PTDL2/social-network/src/contracts/SocialNetwork.sol",
  "compiler": {
    "name": "solc",
    "version": "0.5.0+commit.1d4f565a.Emscripten.clang"
  },
  "schemaVersion": "3.0.1",
  "updatedAt": "2023-04-13T22:50:59.832Z",
  "devdoc": {
    "methods": {}
  },
  "userdoc": {
    "methods": {}
  }
}